:100000000C9424090C944C090C944C090C944C0944
:100010000C944C090C944C090C944C090C944C090C
:100020000C944C090C944C090C944C090C944C09FC
:100030000C944C090C94A20F0C944C090C944C0990
:100040000C94CB150C944C090C944C090C944C0951
:100050000C944C090C944C090C944C090C944C09CC
:100060000C944C090C944C0905A84CCDB2D44EB953
:100070003836A9020C50B9918688083CA6AAAA2A4B
:10008000BE000000803F6020000000000000000073
:1000900000000000003FFFFFFFFFFFFFFFFFFC002D
:1000A00003C0000000000000000003C01C000000AE
:1000B0000000000000401038200000000000000098
:1000C000002020044000000000000000001040025A
:1000D0004000000000000000000A80024000000014
:1000E00000000000000700024000000000000000C7
:1000F0001FFFFFC24000000000000000100000428F
:100100004FFF60180000000017FFFF424FFF60180C
:100110000000003014000142406060180000003010
:100120001470714240603030000000301488894201
:10013000406030303E060CFE1505254240603060C0
:10014000FF860CFE1572754240601860C1860C3047
:10015000150525424060186180C60C30148889421C
:10016000406018C180C60C301470714240600CC1F0
:1001700080C60C301400014240600CC180C60C30B7
:1001800017FFFF4240600F8180C60C301000004214
:1001900040600780C1871C301540154240600780D1
:1001A000FF83FC3E128A8A42406003003E01EC1E3F
:1001B0001540154240000000000000001000004201
:1001C00040000000000000001FFFFFC220000000F0
:1001D00000000000000000041C00000000000000FF
:1001E0000000003803C0000000000000000003C051
:1001F000003FFFFFFFFFFFFFFFFFFC0000000000CC
:1002000000000000000000000808000000000000DE
:10021000000000003E41554155493E003E7F6B7F46
:100220006B773E0022777F7F3E1C0800081C3E7FD4
:100230003E1C0800081C2A7F2A081C00081C3E7F60
:100240003E081C00001C3E3E3E1C00FFFFE3C1C1F7
:10025000C1E3FF00001C2222221C00FFFFE3DDDDC2
:10026000DDE3FF000F03053948483000083E081C55
:1002700022221C0018141010307060000F19111386
:1002800037766000082A1C771C2A080060787E7F79
:100290007E786000030F3F7F3F0F0300081C2A0891
:1002A0002A1C080066666666006666003F65653D56
:1002B000050505000C324824124C300000000000F7
:1002C0007F7F7F00081C2A082A1C3E00081C3E7FF6
:1002D0001C1C1C001C1C1C7F3E1C0800080C7E7F84
:1002E0007E0C080008183F7F3F180800000070705F
:1002F000707F7F000014227F22140000081C1C3E27
:100300003E7F7F007F7F3E3E1C1C080000000000F7
:1003100000000000183C3C18180018003636140085
:100320000000000036367F367F363600081E201C5F
:10033000023C080060660C18306606003C663C28EB
:1003400065663F001818183000000000603018186B
:1003500018306000060C1818180C060000361C7FB8
:100360001C3600000008083E0808000000000030AD
:10037000303060000000003C000000000000000081
:100380000060600000060C18306000003C666E766D
:1003900066663C001818381818187E003C66060C73
:1003A00030607E003C66061C06663C000C1C2C4C33
:1003B0007E0C0C007E607C0606663C003C66607C21
:1003C00066663C007E660C0C181818003C66663C9D
:1003D00066663C003C66663E06663C0000181800F7
:1003E000181800000018180018183000060C1830F3
:1003F000180C060000003C003C0000006030180CA7
:10040000183060003C66061C1800180038445C5820
:10041000423C00003C66667E666666007C66667CE2
:1004200066667C003C66606060663C007C66666672
:1004300066667C007E60607C60607E007E60607CC2
:10044000606060003C6660606E663C006666667E6A
:10045000666666003C18181818183C001E0C0C0C38
:100460006C6C3800666C7870786C660060606060F8
:1004700060607E0063777F6B6363630063737B6F91
:10048000676363003C66666666663C007C6666661B
:100490007C6060003C6666666E3C06007C66667C3E
:1004A000786C66003C66603C06663C007E5A181814
:1004B000181818006666666666663E0066666666BA
:1004C000663C18006363636B7F7763006363361C6D
:1004D000366363006666663C181818007E060C18C2
:1004E00030607E001E18181818181E0000603018A2
:1004F0000C06000078181818181878000814224103
:10050000000000000000000000007F000C0C06004E
:100510000000000000003C063E663E006060607C1B
:1005200066667C0000003C6660663C000606063E8F
:1005300066663E0000003C667E603C001C36303043
:100540007C303000003E66663E063C006060607CA9
:10055000666666000018001818183C000C000C0CA9
:100560006C6C38006060666C786C6600181818183F
:1005700018181800000063777F6B6B0000007C7E0A
:100580006666660000003C6666663C00007C666647
:100590007C606000003C6C6C3C0D0F0000007C66D1
:1005A0006660600000003E403C027C000018187E3F
:1005B000181818000000666666663E0000000066B7
:1005C000663C18000000636B6B6B3E000000663CED
:1005D000183C6600000066663E063C0000003C0CCD
:1005E00018303C000E18183018180E001818180093
:1005F000181818007018180C1818700000003A6CC1
:1006000000000000081C366341417F040620000002
:1006100000000000404040004000A0A0000000009A
:10062000A0E0A0E0A0004060C060C000A02040802A
:10063000A0002040C0A0E0008080000000004080BA
:100640008080400080404040800040A0400000008A
:100650000040E04000000000008080000000E0005A
:100660000000000000008000202040808000E0A00A
:10067000A0A0E00040C04040E000E020E080E000BA
:10068000E020E020E000A0A0E0202000E080E020CA
:10069000C000C080E0A0E000E02040808000E0A03A
:1006A000E0A0E000E0A0E02060000040004000008A
:1006B00000400040800020408040200000E000E03A
:1006C0000000804020408000C02040004000E0A0AA
:1006D000A0E0E000E0A0E0A0A000C0A0E0A0C0007A
:1006E000E0808080E000C0A0A0A0C000E080E080AA
:1006F000E000E080E0808000E08080A0E000A0A03A
:10070000E0A0A000E0404040E000202020A0E00069
:1007100080A0C0C0A00080808080E000A0E0E0A0B9
:10072000A000C0A0A0A0A00040A0A0A04000E0A009
:10073000E080800040A0A0E06600E0A0C0E0AA0049
:10074000E080E020E000E04040404000A0A0A0A009
:10075000E000A0A0A0A04000A0A0E0E0A200A0A017
:1007600040A0A000A0A040404000E0204080E00069
:10077000C0808080C000008040202000C0404040F9
:10078000C00040A00000000000000000E000804029
:10079000000000000060A0A060008080C0A0C00039
:1007A000006080806000202060A0600040A0E080A9
:1007B00060006040E040400060A06020C000808099
:1007C000C0A0A00040004040400040004040C000A9
:1007D0008080A0C0A000C0404040E00000A0E0A099
:1007E000A00000C0A0A0A0000040A0A0400000C049
:1007F000A0C080000060A060200000C0A080800039
:1008000000604020600040E04040400000A0A0A008
:10081000600000A0A0A0400000A0A0E0A00000A0F8
:100820004040A00000A0E020400000E04080E00048
:100830002040C040220040400040400080406040D6
:10084000800000A040000000786000000000000070
:100850000000000000000000000FFFFFFF0000008C
:100860000000000000FFFFFE080000010000000083
:1008700000000000800002080000010000000000ED
:100880000000008000020B0CE441000003120E2265
:100890006180B871820B0D94410000051411226132
:1008A00080A4C9820A9504410000011411225280DB
:1008B000A481420A95044100000118113E5280B8FB
:1008C00082420A6504410000011411224C80A48375
:1008D000C20A6594410000011211224C80A4CA2270
:1008E0000A64E381000007920E224C80A47422085F
:1008F00000000100000000000000008000020FFF67
:10090000FFFF0000000000000000FFFFFE080000E5
:1009100001000000000000000080000208700001DB
:1009200000000100010001008000020890000100A9
:100930000002800280028080000208845E3900008C
:100940000440044004408000020864924100000812
:10095000200820082080000208129241FFFFF010BA
:100960001010101C80000208929241000000082024
:1009700008200480000208E112390000000440044D
:100980004004A14F02080100010000000280028023
:1009900004B34982080200010000000100010004C4
:1009A0009248820800000100000000000000079249
:1009B00048820800000100000000000000049C487C
:1009C000820800000100000100010001048C49823E
:1009D000080214F100000280028002848C4F020899
:1009E00003349900000440044004448000020801DC
:1009F000248900000820082008248000020801241F
:100A000089FFFFF0101010101C8000020801C4893B
:100A100000000008200820008000020800C499009F
:100A2000000004400440008000020800C4F10000FF
:100A30000002800280008000020800000100000027
:100A40000100010000800002080000010000000019
:100A5000000000008000020800000100000CF9C145
:100A6000C44C30800002080000010000141A422427
:100A70004C30800002080000010000341242244A79
:100A80005080000208000001000024324227CA50B2
:100A90008000020800000100003E224224499080AC
:100AA0000002080000010000046242244990800016
:100AB00002081E64F10000044381C449909E64F260
:100AC000083264990000000000000000B2649A0837
:100AD0002054890000000000000000A0548A08266D
:100AE0005489FFFFFFFFFFFFFFFFA6548A08224C37
:100AF000890000000000000000A24C8A08324C99D6
:100B00000000000000000000B24C9A081E4CF100EA
:100B1000000000000000009E4CF2080000010000F0
:100B20000000000000008000020FFFFFFF00000037
:100B30000000000000FFFFFE0000000000000000B9
:100B400000000000000000000000000000000000A5
:100B50000000000000000000000000000000000095
:100B60000000000000000000000000000000000085
:100B70000000000000000000000040000000000035
:100B8000000000300000040000400000000381C6A7
:100B900004004800000000004000000004422A0455
:100BA0000042258704383C488BC88E0824020A007E
:100BB000222648044002488828900824020A00118E
:100BC000444804601E4551E51808240211000944F8
:100BD00048041822455225060824021F004884486C
:100BE0000408224222220204422220803084470448
:100BF000701E4221E21C0381CFA080010000000092
:100C000000000004000000000000010000000000DF
:100C100000000400000000000000000000000000D0
:100C200000000000000000000000000000000000C4
:100C300000000000000000000000000000000000B4
:100C400000000000000000000000000000000000A4
:100C50000000000000000000000000000000000094
:100C600000000000828F0100001F00000000000053
:100C70000000808288800000010000000000000069
:100C800000804488410E0F02038B03C5910787172C
:100C9000E0448841100882044C8026510448988022
:100CA000288841180884044881E44A044890802830
:100CB0008841060884044882244A044890801088A9
:100CC00081020888044882244404489080108F01DF
:100CD0001C0F08038881E4440787106000000000AF
:100CE00008000000000008040000000000000008E8
:100CF00000000000000804000000000000000000E8
:100D000000000000000000000000000000000000E3
:100D100000000000000000000000000000000000D3
:100D200000000000000000000000000000000000C3
:100D300000000000000000000000000000000000B3
:100D400000000000000000000000000000000000A3
:100D50000000000000000000000000000000000093
:100D60000000000000000000000000000000000083
:100D70000000000000000000000000000000000073
:100D80000000000000000000000000000000000063
:100D90000000000000000000000000000000000053
:100DA0000000000000000000000000000000000043
:100DB0000000000000000000000000000000000033
:100DC0000000000000000000000000000000000023
:100DD0000000000000000000000000000000000013
:100DE00000000000000000000000060820000000D5
:100DF0000000000000404040404000400050505083
:100E00000000000000000050F850F850002070A0D2
:100E1000702870200000C8D0205898000020508012
:100E200040A89068004040400000000000102040B2
:100E300040402010004020101010204000103810BA
:100E40000000000000002020F8202000000000002A
:100E50000000101000000000F8000000000000007A
:100E6000000010000000081020408000007088A8DA
:100E7000A88870000020602020207000007088107A
:100E80002040F80000F8102010887000009090902A
:100E9000F810100000F880F008887000007080F0F2
:100EA0008888700000F8081020408000007088706A
:100EB0008888700000708888780870000000002022
:100EC00000002000000000200020204000001860EA
:100ED0008060180000000078007800000000C0303A
:100EE0000830C0000060902020002000007088982A
:100EF000A890887000205088F888880000F088F05A
:100F00008888F000007088808088700000F08888F1
:100F10008888F00000F880F88080F80000F880F001
:100F2000808080000070888098887000008888F831
:100F30008888880000702020202070000038101061
:100F400010906000008890E0A09088000080808071
:100F50008080F8000088D8A8A8888800008888C801
:100F6000A8988800007088888888700000F088F051
:100F70008080800000708888A890680000F088F069
:100F8000A0908800007880700808F00000F8202009
:100F90002020200000888888888870000088888841
:100FA00088502000008888A8A8A8500000885020F9
:100FB00050888800008888502020200000F8081001
:100FC0002040F80000E080808080E0000000804049
:100FD00020100800003808080808380000205000D9
:100FE0000000000000000000000000F80080400049
:100FF000000000000000601070906000008080E041
:101000009090E00000000070808070000010107070
:101010009090700000006090F0807000003040E020
:10102000404040000000609070101060008080E040
:1010300090909000002000202020700000100030D0
:1010400010101060008090A0C0A0900000602020D0
:101050002020700000000050A8A8A800000000F0A8
:1010600088888800000000609090600000000060A8
:1010700090F080800000006090F01010000000B040
:10108000484040000000304020106000004040E038
:1010900040404000000000909090600000000088F8
:1010A0008850200000000088A8A850000000885048
:1010B000205088000000009090604080000000F008
:1010C0002040F000002040408040402000202020B0
:1010D0002020202000201010081010200040A81010
:1010E000000000000000000000000000001E920A46
:1010F000590200100000000040000000FF001E9395
:101100000F64020020000000018000000002001EA9
:10111000940B6F02004000000001800000000200FC
:101120001E950F7B0200800000000280000000017D
:10113000001E940A860200400000000180000000AA
:1011400001001E950891020080000000028000004E
:101150000001001E960A9C0200000100000400012C
:10116000000001001E9608A7020000010000040014
:1011700001000001001E9703B102000002000004FC
:101180000001000001001E9704BC020000020000E4
:10119000040001000001001E9801C70200000400C5
:1011A00000040001000001001E9802D202000004A9
:1011B0000000040001000001001E9488DD020040D0
:1011C000000000028000000001001E9587E8020078
:1011D00080000000028000000001001E9705F3025D
:1011E00000000200000400010000010000000000F7
:1011F000240027002A0000000000250028002B0002
:101200000000000023002600290004040404040454
:1012100004040202020202020303030303030102A5
:101220000408102040800102040810200102040874
:101230001020000000080002010000030407000065
:10124000000000000000E42811241FBECFEFD8E00A
:10125000DEBFCDBF13E0A0E0B1E0E6EDFCE502C0EB
:1012600005900D92A030B107D9F726E0A0E0B3E0D9
:1012700001C01D92A932B207E1F719E0C4E2D9E03A
:1012800004C02197FE010E949F29C332D107C9F7EC
:101290000E9412250C94692E0C9400008FEF8EBDD5
:1012A0000DB407FEFDCF8EB508958091C10085FD78
:1012B000FCCF8091C00085FFF8CF6093C60081E02D
:1012C00090E008950F93CF93DF93EFE2F5E0A785C9
:1012D000B089C0911403D09115038285AC0FBD1F56
:1012E0008E3191F08D3151F08C3149F08B3141F0DC
:1012F0008A3139F0893131F0883129F01CC032C08F
:1013000048C05EC074C08AC00D900BB80000000CCD
:101310000BB80000000C0BB80000000C0BB800006C
:10132000000C0BB80000000C0BB80000000C0BB850
:101330000000000C0BB80D900BB80000000C0BB8AF
:101340000000000C0BB80000000C0BB80000000CF3
:101350000BB80000000C0BB80000000C0BB800002C
:10136000000C0BB80D900BB80000000C0BB800007F
:10137000000C0BB80000000C0BB80000000C0BB800
:101380000000000C0BB80000000C0BB80000000CB3
:101390000BB80D900BB80000000C0BB80000000C4F
:1013A0000BB80000000C0BB80000000C0BB80000DC
:1013B000000C0BB80000000C0BB80000000C0BB8C0
:1013C0000D900BB80000000C0BB80000000C0BB81F
:1013D0000000000C0BB80000000C0BB80000000C63
:1013E0000BB80000000C0BB80000000C0BB80D90FF
:1013F0000BB80000000C0BB80000000C0BB800008C
:10140000000C0BB80000000C0BB80000000C0BB86F
:101410000000000C0BB80000000C0BB80D900BB8CE
:101420000000000C0BB80000000C0BB80000000C12
:101430000BB80000000C0BB80000000C0BB800004B
:10144000000C0BB80000000C0BB80D900BB800009E
:10145000000C0BB80000000C0BB80000000C0BB81F
:101460000000000C0BB80000000C0BB80000000CD2
:101470000BB80000000C0BB80D900BB80000000C6E
:101480000BB80000000C0BB80000000C0BB80000FB
:10149000000C0BB80000000C0BB80000000C0BB8DF
:1014A0000000000C0BB80D900BB80000000C0BB83E
:1014B0000000000C0BB80000000C0BB80000000C82
:1014C0000BB80000000C0BB80000000C0BB80000BB
:1014D000000C0BB80D900BB80000000C0BB800000E
:1014E000000C0BB80000000C0BB80000000C0BB88F
:1014F0000000000C0BB80000000C0BB80000000C42
:101500000BB80D900BB80000000C0BB80000000CDD
:101510000BB80000000C0BB80000000C0BB800006A
:10152000000C0BB80000000C0BB80000000C0BB84E
:101530000D900BB80000000C0BB80000000C0BB8AD
:101540000000000C0BB80000000C0BB80000000CF1
:101550000BB80000000C0BB80000000C0BB80D908D
:101560000BB80000000C0BB80000000C0BB800001A
:10157000000C0BB80000000C0BB80000000C0BB8FE
:101580000000000C0BB80000000C0BB80D900BB85D
:101590000000000C0BB80000000C0BB80000000CA1
:1015A0000BB80000000C0BB80000000C0BB80000DA
:1015B000000C0BB80000000C0BB80D900BB800002D
:1015C000000C0BB80000000C0BB80000000C0BB8AE
:1015D0000000000C0BB80000000C0BB80000000C61
:1015E0000BB80000000C0BB80D900BB80000000CFD
:1015F0000BB80000000C0BB80000000C0BB800008A
:10160000000C0BB80000000C0BB80000000C0BB86D
:101610000000000C0BB80D900BB80000000C0BB8CC
:101620000000000C0BB80000000C0BB80000000C10
:101630000BB80000000C0BB80000000C0BB8000049
:10164000000C0BB80D900BB80000000C0BB800009C
:10165000000C0BB80000000C0BB80000000C0BB81D
:101660000000000C0BB80000000C0BB80000000CD0
:101670000BB80D900BB80000000C0BB80000000C6C
:101680000BB80000000C0BB80000000C0BB80000F9
:10169000000C0BB80000000C0BB80000000C0BB8DD
:1016A0000D900BB80000000C0BB80000000C0BB83C
:1016B0000000000C0BB80000000C0BB80000000C80
:1016C0000BB80000000C0BB80000000C0BB80D901C
:1016D0000BB80000000C0BB80000000C0BB80000A9
:1016E000000C0BB80000000C0BB80000000C0BB88D
:1016F0000000000C0BB80000000C0BB80D900BB8EC
:101700000000000C0BB80000000C0BB80000000C2F
:101710000BB80000000C0BB80000000C0BB8000068
:10172000000C0BB80000000C0BB80D900BB80000BB
:10173000000C0BB80000000C0BB80000000C0BB83C
:101740000000000C0BB80000000C0BB80000000CEF
:101750000BB80000000C0BB80D900BB80000000C8B
:101760000BB80000000C0BB80000000C0BB8000018
:10177000000C0BB80000000C0BB80000000C0BB8FC
:101780000000000C0BB80D900BB80000000C0BB85B
:101790000000000C0BB80000000C0BB80000000C9F
:1017A0000BB80000000C0BB80000000C0BB80000D8
:1017B000000C0BB80D900BB80000000C0BB800002B
:1017C000000C0BB80000000C0BB80000000C0BB8AC
:1017D0000000000C0BB80000000C0BB80000000C5F
:1017E0000BB80D900BB80000000C0BB80000000CFB
:1017F0000BB80000000C0BB80000000C0BB8000088
:10180000000C0BB80000000C0BB80000000C0BB86B
:101810000D900BB80000000C0BB80000000C0BB8CA
:101820000000000C0BB80000000C0BB80000000C0E
:101830000BB80000000C0BB80000000C0BB80D90AA
:101840000BB80000000C0BB80000000C0BB8000037
:10185000000C0BB80000000C0BB80000000C0BB81B
:101860000000000C0BB80000000C0BB800000000DA
:101870005F98DF91CF910F9108950F93CF93DF93EE
:10188000EFE2F5E0A785B089C0911403D09115036C
:101890008285AC0FBD1F02C0000C0BB80D9000007C
:1018A0000BB800000000000C0BB800000000000C9A
:1018B0000BB800000000000C0BB800000000000C8A
:1018C0000BB800000000000C0BB80000000C8A955B
:1018D0000BB811F70000000C0BB80000000000006E
:1018E0005F98DF91CF910F9108950F93CF93DF937E
:1018F000EFE2F5E0A785B089C0911403D0911503FC
:101900008285AC0FBD1F0BB10F7703C000FA07F93A
:101910000BB90D9007FA07F90BB90000000006FAA1
:1019200007F90BB90000000005FA07F90BB9000030
:10193000000004FA07F90BB90000000003FA07F9E8
:101940000BB90000000002FA07F90BB900008A95F4
:1019500001FA07F90BB9D1F6000000FA07F90BB943
:101960000BB10F7707FB07F90BB9DF91CF910F91FF
:1019700008950F93CF93DF93EFE2F5E0A785B08949
:10198000C0911403D09115038285AC0FBD1F0BB11C
:101990000F7703C000FA07F90BB90D90000007FAA2
:1019A00007F90BB900000000000006FA07F90BB9AF
:1019B00000000000000005FA07F90BB90000000064
:1019C000000004FA07F90BB900000000000003FA58
:1019D00007F90BB900000000000002FA07F90BB983
:1019E00000000000000001FA07F90BB98A9591F692
:1019F0000000000000FA07F90BB90BB10F7707FBE5
:101A000007F90BB9DF91CF910F91089520912F0520
:101A100030913005809136059091370528173907A8
:101A20000CF44EC08CEA93E0909389008093880078
:101A30001092300510922F0580913105909132055A
:101A4000A0913305B09134050196A11DB11D80937D
:101A5000310590933205A0933305B09334058091FE
:101A6000100390911103A0911203B0911303892BDD
:101A70008A2B8B2B09F18091100390911103A09177
:101A80001203B0911303181619061A061B0684F5E3
:101A90008091100390911103A0911203B091130350
:101AA0000197A109B1098093100390931103A093AA
:101AB0001203B09313031CC01092B1002B9818C0EE
:101AC00020912F053091300580913D05082E000CA6
:101AD000990B2817390761F48AE490E09093890004
:101AE0008093880082E89DE090931703809316030B
:101AF00080912F0590913005019690933005809349
:101B00002F05089520912F053091300580913505DE
:101B100090E02817390759F4109215031092140316
:101B200080913B0580933C0582EB9DE00DC02091A8
:101B30002F05309130058091360590913705281793
:101B4000390731F486E09DE09093170380931603E4
:101B500080912F05909130050196909330058093E8
:101B60002F0508953091840020913A052A50231BB7
:101B70002350F0F72D5F19F02A9511F001C00000F5
:101B8000E0911803F0911903099590913C0580911B
:101B90003B0591110FC080933C0590913905209130
:101BA000140330911503290F311D30931503209331
:101BB000140303C0915090933C0540912F05509120
:101BC00030054F5F5F4F6091350570913805082EE5
:101BD000000C990B0196789F9001799F300D11248C
:101BE000C901860F911D4817590731F482E89DE01D
:101BF000909317038093160380912F0590913005E1
:101C000001969093300580932F050895089598E0EC
:101C10004BE050E087FF02C05F9A01C05F9829B196
:101C2000880F26FB662760F970E09B01282B822F26
:101C30005C9AFA013197F1F75C98FA013197F1F764
:101C4000915041F70895FC016089718982899389D7
:101C500008950F931F93FB0100811181228133812D
:101C6000FC01008B118B228B338BFB01448155814E
:101C700066817781FC0144875587668777871F9146
:101C80000F9108950F931F93FC01008911892289F8
:101C90003389FB010083118322833383FC01848514
:101CA0009585A685B785FB0184839583A683B78335
:101CB0001F910F91089561E0FC0180810E94191528
:101CC0008FEF0C94511CCF92DF92EF92FF921F93F3
:101CD000CF93DF9300D000D0CDB7DEB77C01162FB5
:101CE00029833A834B835C83FC01228182E090E06C
:101CF000821728F4963019F0880F9F5FF9CF892F4B
:101D0000806A86958CBD90FD03C081E0963009F411
:101D100080E08DBD60E0F70180810E9419150E946E
:101D2000BF156B010E944E098F3F39F00E94BF150D
:101D30006C197D0968357240A8F3812F80640E9478
:101D4000511C8C810E94511C8B810E94511C8A81E4
:101D50000E94511C89810E94511C112311F087E8B7
:101D600001C085E90E94511C1C3011F40E944E09EB
:101D700010E00E944E09F701838387FF04C01F3FD4
:101D800011F01F5FF6CF0F900F900F900F90DF9123
:101D9000CF911F91FF90EF90DF90CF90089506961E
:101DA0000C94EA170F931F932130310531F0223044
:101DB000310549F0232BA9F40FC0FC0100891189DA
:101DC0002289338905C0FC01008D118D228D338D50
:101DD000400F511F621F731F06961F910F910C94A5
:101DE000EA1780E01F910F91089504960C948018D3
:101DF0000F931F93CF93DF93EC0189018C81833084
:101E000039F089E0440F551F661F771F8A95D1F777
:101E10009A01AB0168E1CE010E94630E882319F09C
:101E200086E0898326C08EEF0E94511CF8018081D4
:101E30008EBD818132961E5F0DB407FEFDCF8EBD33
:101E4000E017F10711F08191F7CF0DB407FEFDCF38
:101E50008FEF0E94511C8FEF0E94511C0E944E096F
:101E60008B838F71853051F083E18983CE010E948D
:101E70005B0ECE010E945B0E80E004C0CE010E948A
:101E80005B0E81E0DF91CF911F910F910895EF924A
:101E9000FF920F931F93CF93DF93EC0179018C8115
:101EA000833039F089E0440F551F661F771F8A95EC
:101EB000D1F79A01AB0161E1CE010E94630E882344
:101EC00011F084E014C00E94BF158B010E944E09DE
:101ED0008B838F3F49F40E94BF15601B710B6D32DD
:101EE0007140A0F381E103C08E3F39F08FE0898318
:101EF000CE010E945B0E80E01EC08FEF8EBDF70109
:101F0000D701A150BE4F9FEF0DB407FEFDCF8EB598
:101F10009EBD8193EA17FB07B9F70DB407FEFDCF0D
:101F20008EB58C931B820E944E090E944E09CE01F1
:101F30000E945B0E81E0DF91CF911F910F91FF9086
:101F4000EF9008951F920F920FB60F9211242F93C6
:101F50003F934F935F936F937F938F939F93AF9331
:101F6000BF93EF93FF93E0911603F0911703099548
:101F7000FF91EF91BF91AF919F918F917F916F9161
:101F80005F914F913F912F910F900FBE0F901F9037
:101F90001895AFE2B5E01A96EC911A97982F96959E
:101FA000969596956E9FF0011124BF01690F711DE2
:101FB0001F96ED91FC915097E60FF71F282F277081
:101FC00080E890E002C0959587952A95E2F7908188
:101FD000892B80830895413011F40C94C90F20910E
:101FE0003905982F969596959695E0913E05F09136
:101FF0003F058770629FB0011124690F711DE60FC4
:10200000F71F41110CC02FE73FEFA90102C0559502
:1020100047958A95E2F7CA01908189230BC020E891
:1020200030E0A90102C0559547958A95E2F7CA01AB
:102030009081892780830895FF920F931F93CF93F8
:10204000DF9361E085E00E94491560E084E00E9432
:10205000191561E084E00E94491561E087E00E9463
:102060004915C3E0D0E003E210E064E670E080E0F0
:1020700090E00E948515F89460E084E00E941915B4
:1020800061E085E00E941915C8010197F1F760E051
:1020900085E00E941915789469E170E080E090E095
:1020A0000E948515F8948CEA0E94070E83E50E9431
:1020B000070E80E00E94070EF82E80E00E94070EB7
:1020C000789483E5F81621F0219779F680E001C035
:1020D00081E0DF91CF911F910F91FF900895CF93F1
:1020E000DF9300D01F92CDB7DEB7F8942B834A83DD
:1020F00069830E94070E6981862F0E94070E4A811C
:10210000842F0E94070E2B81822F0E94070E789445
:102110000F900F900F90DF91CF910895CF92DF92A3
:10212000EF92FF92CF93DF93C091FC05D091FD0514
:10213000C12CD12C7601CC16DD06C8F4C601817005
:102140009927892B11F088E001C080E0B701A60132
:1021500076956795579547952FEF60E080640E94CC
:102160006F108FEFC81AD80AE80AF80AE4CFDF9197
:10217000CF91FF90EF90DF90CF900895809101066E
:10218000882331F06AE070E080E090E00C948515DF
:1021900020E040E060E080EF0E946F1080FDF8CF0B
:1021A00008958F929F92AF92BF92CF92DF92EF925B
:1021B000FF92909100069F3F09F47BC04091F60585
:1021C0005091F7056091F8057091F9052091FA0595
:1021D0003091FB05C0900606D0900706E0900806F7
:1021E000F0900906C114D104E104F10439F4E92F97
:1021F000F0E0E65EFC4F2081216046C04A015B01B1
:10220000821A930AA108B108C814D904EA04FB048D
:1022100071F1F901EE0FFF1F4A015B018E1A9F0A4F
:10222000A108B108C814D904EA04FB0411F1F901AA
:10223000EE0FFF1FEE0FFF1F4A015B018E1A9F0A70
:10224000A108B108C814D904EA04FB04A1F0E3E032
:10225000220F331FEA95E1F7421B530B6109710905
:10226000C416D506E606F70631F520E005C023E0E2
:1022700003C022E001C021E0E92FF0E0E65EFC4F60
:10228000220F3081387F232B2083882391F0892FE0
:1022900090E0FC01E45FFE4F6081FC01E65EFC4FD4
:1022A0002081222331F040E08CEA0E946F100E94CE
:1022B000BE1080E001C081E0FF90EF90DF90CF90F2
:1022C000BF90AF909F908F900895FC01128214826E
:1022D000DB018D919C91918380830895FB01208186
:1022E0003181FC013183208308954F925F926F9278
:1022F0007F928F929F92AF92BF92CF92DF92EF9296
:10230000FF920F931F93CF93DF93CDB7DEB72C9738
:102310000FB6F894DEBF0FBECDBF6B017C010E94EB
:10232000122A69837A838B839C83C701B6010E943A
:10233000F22B2B013C0100E415E0F801C480D580AC
:10234000E680F78020E030E046E153E46085718567
:10235000828593850E94A5294B015C0129813A81E0
:102360004B815C810E94852B6D837E838F83988750
:1023700029813A814B815C81C701B6010E94852B7E
:1023800069877A878B879C87A3019201C501B40175
:102390000E94852B9B01AC0169857A858B859C8584
:1023A0000E94A52920E030E0A9010E94A629F80199
:1023B0006483758386839783A3019201C701B60165
:1023C0000E94852B2D813E814F8158850E94A62930
:1023D00020E030E046E153E40E94A629F80160873E
:1023E000718782879387045F1F4FF5E0003A1F07CC
:1023F00009F0A3CF2C960FB6F894DEBF0FBECDBF69
:10240000DF91CF911F910F91FF90EF90DF90CF90D0
:10241000BF90AF909F908F907F906F905F904F9004
:1024200008954F925F926F927F928F929F92AF9298
:10243000BF92CF92DF92EF92FF920F931F93CF93B1
:10244000DF93CDB7DEB728970FB6F894DEBF0FBE87
:10245000CDBF6B017C010E94122A69837A838B8332
:102460009C83C701B6010E94F22B2B013C0100E4C2
:1024700015E0F801C080D180E280F38020E030E0F8
:1024800046E153E460857185828593850E94A52984
:102490004B015C0129813A814B815C810E94852B33
:1024A0006D837E838F839887A3019201C501B40158
:1024B0000E94852B4B015C0129813A814B815C8113
:1024C000C701B6010E94852B9B01AC01C501B40177
:1024D0000E94A62920E030E0A9010E94A629F80167
:1024E0006083718382839383A3019201C701B60144
:1024F0000E94852B9B01AC016D817E818F81988527
:102500000E94A52920E030E046E153E40E94A6297C
:10251000F8016087718782879387045F1F4FF5E01A
:10252000003A1F0709F0A5CF28960FB6F894DEBF32
:102530000FBECDBFDF91CF911F910F91FF90EF9014
:10254000DF90CF90BF90AF909F908F907F906F90D3
:102550005F904F9008954F925F926F927F928F920B
:102560009F92AF92BF92CF92DF92EF92FF920F9322
:102570001F93CF93DF93CDB7DEB728970FB6F894AC
:10258000DEBF0FBECDBF6B017C010E94122A2B0162
:102590003C01C701B6010E94F22B69837A838B83C9
:1025A0009C8300E415E0F80180809180A280B380D4
:1025B000C480D580E680F780A3019201C501B401F3
:1025C0000E94852B6D837E838F83988729813A8132
:1025D0004B815C81C701B6010E94852B9B01AC0138
:1025E0006D817E818F8198850E94A52920E030E051
:1025F000A9010E94A629F8016083718382839383D5
:1026000029813A814B815C81C501B4010E94852BEF
:102610004B015C01A3019201C701B6010E94852B09
:102620009B01AC01C501B4010E94A62920E030E065
:10263000A9010E94A629F801648375838683978384
:10264000045F1F4FF5E0003A1F0709F0ACCF289652
:102650000FB6F894DEBF0FBECDBFDF91CF911F91B3
:102660000F91FF90EF90DF90CF90BF90AF909F9031
:102670008F907F906F905F904F9008952F923F9230
:102680004F925F926F927F928F929F92AF92BF9282
:10269000CF92DF92EF92FF920F931F93CF93DF932E
:1026A00000D01F92CDB7DEB760913905660F660F77
:1026B000660F669570E080E090E00E94BA2A2B01D8
:1026C0003C01509138055983652F669570E080E094
:1026D00090E00E94BA2A4B015C0180E495E09B8364
:1026E0008A8300E010E0EA81FB81C084D184E28427
:1026F000F384C80180509D4F1C0120E030E040E889
:1027000052E460817181828193810E94852BA701AF
:1027100096010E94172AA30192010E94A6290E94F5
:10272000892AF101608320E030E040E852E4EA8148
:10273000FB8164817581868197810E94852BA70129
:1027400096010E94172AA50194010E94A6290E94C1
:10275000892AF10161838A819B810C969B838A83FC
:102760000E5F1F4F0031110509F0BDCF40913505B7
:1027700020913B05022E000C330B2F5F3F4FE98168
:10278000E29FC001E39F900D1124840F911D0196DB
:1027900020912F053091300528173907C9F720916E
:1027A0002F053091300528173907C9F30E94891C7D
:1027B000B0900303C0900203F09001031091000356
:1027C00001E02B2D4C2D6F2D812F0E94A21F909088
:1027D0000503A0900403292D4A2D6F2D812F0E94FF
:1027E000A21F7090090380900803272D482D6F2D9C
:1027F000812F0E94A21FF0900B0310910A032F2D2E
:10280000412F6B2D8C2D0E94A21FD0900703E090CA
:1028100006032D2D4E2D6B2D8C2D0E94A21FB090E6
:102820000D03C0900C032B2D4C2D692D8A2D0E9479
:10283000A21F2D2D4E2D692D8A2D0E94A21F2B2DFA
:102840004C2D672D882D0E94A21F2F2D412F672D03
:10285000882D0E94A21F90900F03A0900E032B2D95
:102860004C2D692D8A2D0E94A21F2D2D4E2D692DD4
:102870008A2D0E94A21F2F2D412F692D8A2D0E9483
:10288000A21F0F900F900F90DF91CF911F910F918A
:10289000FF90EF90DF90CF90BF90AF909F908F9080
:1028A0007F906F905F904F903F902F9008950E947F
:1028B000432CCF92DF92EF92FF920F931F93CF930F
:1028C000DF936C017A018B01C0E0D0E0CE15DF050B
:1028D00089F0D8016D918D01D601ED91FC910190A7
:1028E000F081E02DC6010995892B11F47E0102C00B
:1028F0002196ECCFC701DF91CF911F910F91FF90EF
:10290000EF90DF90CF900895833081F028F48130EC
:1029100099F08230A1F008958730A9F08830B9F09D
:102920008430D1F4809180008F7D03C0809180003D
:102930008F7780938000089584B58F7702C084B527
:102940008F7D84BD08958091B0008F7703C0809102
:10295000B0008F7D8093B00008953FB7F8948091C8
:10296000250590912605A0912705B091280526B54B
:10297000A89B05C02F3F19F00196A11DB11D3FBFB7
:10298000BA2FA92F982F8827820F911DA11DB11D45
:10299000BC01CD0142E0660F771F881F991F4A9541
:1029A000D1F70895CF93C0911F05C0FF16C0409185
:1029B000DF055091E0056091E1057091E2052FE19E
:1029C00033E08091DD059091DE050E94F80E8823AA
:1029D00029F0CE7FC0931F0501C081E0CF910895FB
:1029E000CF93DF93282F30E0F901EE5CFD4E849108
:1029F000F901E25EFD4ED491F901E65FFD4EC4910E
:102A0000CC2391F081110E948414EC2FF0E0EE0FA2
:102A1000FF1FE050FE4EA591B491EC91ED2381E0B3
:102A200090E021F480E002C080E090E0DF91CF915F
:102A300008951F93CF93DF93282F30E0F901EE5CC8
:102A4000FD4E8491F901E25EFD4ED491F901E65FFD
:102A5000FD4EC491CC23C9F0162F81110E9484141D
:102A6000EC2FF0E0EE0FFF1FEA50FE4EA591B4915F
:102A70008FB7F894111105C09C91ED2FE095E923D3
:102A800002C0EC91ED2BEC938FBFDF91CF911F91A2
:102A90000895CF93DF9390E0FC01E25EFD4E249118
:102AA000FC01E65FFD4E8491882361F190E0880F80
:102AB000991FFC01E451FE4EC591D491FC01EA50EE
:102AC000FE4EA591B491611109C09FB7F894888119
:102AD000209582238883EC912E230BC0623061F411
:102AE0009FB7F8943881822F809583238883EC9157
:102AF0002E2B2C939FBF06C08FB7F894E8812E2B06
:102B000028838FBFDF91CF9108958F929F92AF92CC
:102B1000BF92CF92DF92EF92FF926B017C010E94F5
:102B2000AD144B015C01C114D104E104F104F1F0D6
:102B30000E94AD14DC01CB0188199909AA09BB09CF
:102B4000883E9340A105B10570F321E0C21AD10877
:102B5000E108F10888EE880E83E0981EA11CB11CE4
:102B6000C114D104E104F10419F7DDCFFF90EF9017
:102B7000DF90CF90BF90AF909F908F9008952FB728
:102B8000F894609121057091220580912305909120
:102B900024052FBF08951F920F920FB60F92112494
:102BA0002F933F938F939F93AF93BF938091210572
:102BB00090912205A0912305B09124053091200524
:102BC00023E0230F2D3720F40196A11DB11D05C070
:102BD00026E8230F0296A11DB11D209320058093A6
:102BE000210590932205A0932305B093240580919D
:102BF000250590912605A0912705B09128050196FD
:102C0000A11DB11D8093250590932605A09327054E
:102C1000B0932805BF91AF919F918F913F912F91D4
:102C20000F900FBE0F901F901895CF92DF92EF92EA
:102C3000FF92CF936B017C01C42F8091DF059091AF
:102C4000E005A091E105B091E2058C159D05AE056A
:102C5000BF0509F10E94D214811103C080E090E009
:102C600022C0C2FF0BC010921F05C092DF05D09298
:102C7000E005E092E105F092E2050DC02FE133E0BE
:102C8000B701A6018091DD059091DE050E94470FF6
:102C90008111E9CFE3CFC37080911F05C82BC0938A
:102CA0001F058FE193E0CF91FF90EF90DF90CF90E1
:102CB00008958F929F92AF92BF92CF92DF92EF9240
:102CC000FF920F931F93CF93DF93EC016A017B0177
:102CD00048015901423051056105710510F480E049
:102CE00051C08E819F81A885B9850196A11DB11D16
:102CF00084179507A607B70790F38B89803149F4AD
:102D0000452F562F672F77278F859889A989BA89EC
:102D10000DC0803221F78F859889A989BA89E7E0AB
:102D20007695679557954795EA95D1F78A019B0166
:102D3000080F191F2A1F3B1FC901B80143E00E9459
:102D40001516009761F22B89203159F4DD24EE2409
:102D5000FF24CC0CDD1CFC01EC0DFD1D918280825A
:102D600010C0E894C7F8DD24EE24FF24CC0CDD1C51
:102D7000CC0CDD1CFC01EC0DFD1D80829182A28239
:102D8000B38281E0DF91CF911F910F91FF90EF907F
:102D9000DF90CF90BF90AF909F908F900895CF928B
:102DA000DF92EF92FF920F931F93CF93DF93FC017B
:102DB000423051056105710510F480E05EC08681E6
:102DC0009781A085B1850196A11DB11D8417950736
:102DD000A607B70790F38389803149F4BB27A72F53
:102DE000962F852FC784D088E188F2880FC0803263
:102DF00021F787859089A189B2896A017B01C7E0A3
:102E0000F694E794D794C794CA95D1F78C0D9D1D7D
:102E1000AE1DBF1DE9016A017B018F0142E0BC01CB
:102E2000CD010E941516009741F2F8012389B701E0
:102E3000A601203169F4552766277727440F551FCF
:102E4000FC01E40FF51F80819181A0E0B0E010C08B
:102E50004F77552766277727440F551F440F551F77
:102E6000FC01E40FF51F80819181A281B381BF70C5
:102E700088839983AA83BB8381E0DF91CF911F91DF
:102E80000F91FF90EF90DF90CF900895EF92FF9217
:102E90000F931F93CF93DF9300D000D0CDB7DEB751
:102EA0008C01FC0186899789A08DB18D89839A83D5
:102EB000AB83BC83E12CF12C49815A816B817C81ED
:102EC0009E012F5F3F4FD80114968D919C911597CD
:102ED0000E94CF16882399F1D8011496ED91FC91A8
:102EE00015978481E80EF11CE114B0E1FB0630F582
:102EF00049815A816B817C818389803139F481E0F9
:102F0000483F5F4F6105710538F4D6CF81E0483FF7
:102F10005F4F6F4F7F4080F2A70160E070E099E063
:102F2000440F551F661F771F9A95D1F7D801529607
:102F30004D935D936D937C93559701C080E00F9006
:102F40000F900F900F90DF91CF911F910F91FF90F5
:102F5000EF900895CF93DF93EC018A818823A1F14C
:102F6000898187FF2DC06E857F858889998941E099
:102F70000E941516009741F1EB8140E2E49F900119
:102F80001124FC01E20FF31F4081453EE9F04A8124
:102F9000423040F44A895B896C897D89448F558F22
:102FA000668F778F4E895F89688D798DFC01E20F7E
:102FB000F31F538F428F758B648B89818F77898341
:102FC000DF91CF910C94D21481E0888380E0DF916F
:102FD000CF9108958F929F92AF92BF92CF92DF923E
:102FE000EF92FF920F931F93CF93DF93EC018A81AF
:102FF000811102C080E077C00A891B892C893D8934
:103000000417150726073707A8F36A017B018230EA
:1030100029F4CA86DB86EC86FD860DC0C114D10476
:10302000E104F10451F41E821F82188619861A8663
:103030001B861C861D8681E056C08A849B84AC84D6
:10304000BD84EC81FD81228530E0275F3F4FB501D3
:10305000A4014150510961097109022E04C07695FD
:103060006795579547950A94D2F7D701C6010197FE
:10307000A109B10904C0B695A795979587952A959A
:10308000D2F784179507A607B70720F089288A2862
:103090008B2849F44E895F89688D798D4E835F83D3
:1030A0006887798704C0841B950BA60BB70B4C016E
:1030B0005D018E010A5F1F4F81149104A104B104C8
:1030C00009F4A7CF4E815F816885798598018C814D
:1030D0009D810E94CF1691E0891A9108A108B1083C
:1030E0008111EACF87CFDF91CF911F910F91FF9090
:1030F000EF90DF90CF90BF90AF909F908F9008950A
:10310000EF92FF920F931F93CF93DF931F92CDB750
:10311000DEB78C017C0182E0E80EF11CBE016F5F1E
:103120007F4FC7010E944F228130A9F0F801208112
:103130003181F90136970190F081E02DE00FF11F08
:1031400087FF03C08681816002C08681826086839A
:103150008FEF9FEF27C099819D3021F4F801848D76
:1031600084FF03C0892F90E01DC0BE016F5F7F4FB9
:10317000C7010E944F22813099F489818A3069F019
:10318000F801448555856685778541505109610967
:103190007109C7010E94EA1703C08AE090E002C0EB
:1031A0008DE090E00F90DF91CF911F910F91FF90F4
:1031B000EF900895CF93DF93FC012281222311F039
:1031C00080E03EC0FB01EC017D836C83838980310C
:1031D00009F18032A9F783E08A8386899789A08DD7
:1031E000B18D8E8B9F8BA88FB98FCE010E94461711
:1031F000882331F381E089831E821F821886198615
:103200001A861B861C861D861E861F86188A198AAA
:103210001B8216C082E08A831E8A1F8A188E198E2E
:1032200084899589A0E0B0E025E0880F991FAA1F46
:10323000BB1F2A95D1F78A8B9B8BAC8BBD8BDACFCA
:10324000DF91CF9108952F923F924F925F926F92AC
:103250007F928F929F92AF92BF92CF92DF92EF9226
:10326000FF920F931F93CF93DF93CDB7DEB72F97C6
:103270000FB6F894DEBF0FBECDBF7C016B015B873C
:103280004A872D83DB0114968D919C911597F70148
:103290009583848340E050E0BA01C6010E94EA179A
:1032A00000E0F6014285538564857585828993899E
:1032B000A489B589481759076A077B0708F044C1F4
:1032C000BE016F5F7F4FC6010E944F22019719F424
:1032D000898190E002C08FEF9FEF019609F4ABC2A5
:1032E000F60182859385A485B58581509E4FAF4FA9
:1032F000BF4F82879387A487B5874090DF055090A2
:10330000E0056090E1057090E205EFE1AE2EE3E0AC
:10331000BE2E10E0D5018C91882319F0853E81F4F2
:10332000A4C2011106C0F70146865786608A718AD9
:103330001383D5018C91882309F405C101E009C0EC
:103340004BE050E0B5018A859B850E94542C892B67
:1033500039F01F5FB0E2AB0EB11C1031D9F6A1CF2E
:10336000FD81F7FD68C2F0E21F9FA00111249A01C0
:10337000215E3C4FD9011B968C91817121F08D818A
:10338000827109F0DBC08091DF059091E005A0918A
:10339000E105B091E205F70186879787A08BB18B95
:1033A00013838A01015E1C4FD80154968D919C9124
:1033B0005597A0E0B0E0DC0199278827868B978B92
:1033C000A08FB18FF801428D538D60E070E0842BA7
:1033D000952BA62BB72BF701868B978BA08FB18FE0
:1033E000D9011B968C91887169F4F801848D958DB3
:1033F000A68DB78DF701828B938BA48BB58B81E063
:1034000082830DC0803109F099C0C7010E94461720
:10341000882309F493C084E0D70112968C938D81A0
:103420008F70F7018183D70116821782108611866B
:103430001286138614861586FD81F4FF71C01296DC
:103440008C91813009F07AC0F1FF78C0F701828950
:103450009389A489B589892B8A2B8B2B09F460C0A9
:1034600040E050E0BA01C7010E94EA17882309F43E
:1034700065C0F70186889788A08CB18CC480D58000
:103480009E012F5F3F4FB501A401C6010E94CF16D8
:10349000882309F453C000E010E09801B501A401AD
:1034A000C6010E945916882309F448C0F60180819C
:1034B0009181A281B38188169906AA06BB0620F4E1
:1034C00080829182A282B38289809A80AB80BC8004
:1034D000F6018389803109F0B0C1F8EF8F16FFEF54
:1034E0009F06A104B10460F2D70156961D921D9269
:1034F0001D921C925997F701128A138A148A158A11
:10350000818180688183C7010E94AA178823B1F056
:1035100040E050E0BA01C7010E94EA17882371F029
:10352000FD81F5FF0EC0D70152964D915D916D91D1
:103530007C915597C7010E94EA179AC1F701128240
:103540007AC181E095C101E08D818274823409F0F5
:1035500072C10023C1F0D70113961C9113971E96D8
:103560006D917D918D919C91519741E00E9415162E
:10357000009709F460C1F7012381F0E22F9F800DCD
:10358000911D112438C1D60112968C911297823068
:1035900009F451C152968D919D910D90BC91A02D31
:1035A000803E9F4FAF41B10508F045C1D60114964A
:1035B0002D903C901597F10186819781A085B1856A
:1035C0009C01AD012F5F3F4F4F4F5F4F2C873D87D1
:1035D0004E875F87D60116964D905D906D907C90DA
:1035E0001997411451046104710439F0BFEF4B1A6B
:1035F0005B0A6B0A7B0A10E006C0F1014080518033
:103600006280738011E0530142011E821F8218867E
:103610001986F10186819781A085B1852E813F8130
:1036200048855985281739074A075B0708F003C101
:103630008C859D85AE85BF8584159505A605B70546
:1036400050F462E0462E512C612C712C72E0872ED2
:10365000912CA12CB12C9E012F5F3F4FB301A201F1
:10366000C1010E94CF16882309F4E5C089819A819F
:10367000AB81BC81892B8A2B8B2B71F08414950430
:10368000A604B70409F010E0530142019FEF891A24
:10369000990AA90AB90A05C0481459046A047B04A6
:1036A00091F02E813F81488559852F5F3F4F4F4FC5
:1036B0005F4F2E833F83488759873FEF431A530A52
:1036C000630A730AA6CF112351F0D501C4010196F4
:1036D000A11DB11DF10180839183A283B3830FEFFC
:1036E0001FEF2FEF3FE0B501A401C1010E94591661
:1036F000882309F4A0C0D60116964D915D916D9175
:103700007C911997411551056105710541F09501AD
:103710008401C1010E945916882309F48CC0D60186
:1037200016968D929D92AD92BC92199756968D9158
:103730009D910D90BC91A02D892B8A2B8B2B41F450
:10374000F601868A978AA08EB18E818180688183F6
:10375000D6011496ED91FC911597B2E08B1A910861
:10376000A108B108028404C0880C991CAA1CBB1CC7
:103770000A94D2F783859485A585B6851401250121
:10378000280E391E4A1E5B1E45E0C201B1010E948F
:1037900015165C01892B09F44EC080E092E0D5013A
:1037A000FC011D923197E9F711E06090DD05709002
:1037B000DE05D6011496ED91FC91159784811817BA
:1037C00008F445C090E0A0E0B0E059E0880F991FF0
:1037D000AA1FBB1F5A95D1F7F60142895389648904
:1037E0007589840F951FA61FB71F828B938BA48B9F
:1037F000B58BC50110E020E2DC011D922A95E9F7A6
:103800002BE0EA85FB85DC0101900D922A95E1F71A
:1038100021E238E2FC01318B208B40E058E05787F1
:103820004687338B228B318F208F578B468B0E949C
:10383000D214811198CD80E01BC028EF82162FEFA3
:103840009206A2062FE0B20608F41ACE4DCE9501DC
:10385000B201A101410F511D611D711DC3010E94E3
:10386000F80E882341F31F5FA4CF011167CD5BCD14
:103870002F960FB6F894DEBF0FBECDBFDF91CF916C
:103880001F910F91FF90EF90DF90CF90BF90AF907E
:103890009F908F907F906F905F904F903F902F9070
:1038A00008958EBD0DB407FEFDCF089580912C05BF
:1038B00090E040913805E0912D05F0912E0531966C
:1038C0005491242F30E0251B310982179307DCF037
:1038D000E49180913E0590913F0520913905DC01EE
:1038E000E29FA00DB11D1124BC01429F600D711D0E
:1038F00011249B01FC012A173B0720F08C91819336
:103900001D92F9CF0895E4918E0F911D80932C059F
:10391000089510922B0510922C0580E090E02091E4
:10392000390530913805239F9001112482179307A0
:103930004CF4E0913E05F0913F05E80FF91F10822D
:103940000196EDCF08958F929F92AF92BF92CF9242
:10395000DF92EF92FF92CF93DF937C01C091360507
:10396000D0913705C63081E0D80709F5609131055F
:103970007091320580913305909134050E94B82AE8
:1039800023E333E34EE752E40E94852B20E030E04E
:1039900043E853E40E94852B20E030E04AE754E4FA
:1039A0000E94172A0E94892A9B01AC0112C0209113
:1039B0003105309132054091330550913405A0E036
:1039C000BEE40E94252E28EE33E040E050E00E9445
:1039D000382EDA01C9018E0D9F1DA11DB11D6C018C
:1039E0007D0188EE882E83E0982EA12CB12CC63064
:1039F00091E0D907F9F46091310570913205809119
:103A00003305909134050E94B82A23E333E34EE74F
:103A100052E40E94852B20E030E043E853E40E940A
:103A2000852B20E030E04AE754E40E94172A0E94E8
:103A3000892A12C020913105309132054091330519
:103A400050913405A0E0BEE40E94252EA50194010A
:103A50000E94382ECA01B9016C157D058E059F059F
:103A600030F2DF91CF91FF90EF90DF90CF90BF9039
:103A7000AF909F908F9008952F923F924F925F92B8
:103A80006F927F928F929F92AF92BF92CF92DF926E
:103A9000EF92FF920F931F93CF93DF93CDB7DEB7D3
:103AA00029970FB6F894DEBF0FBECDBF6A01482F2D
:103AB000477078E0741B011106C0F601E20FF31F96
:103AC00004912F5F3F4FE11006C0F601E20FF31F94
:103AD000E4902F5F3F4F902F9770E02FE695E6958B
:103AE000E695992311F0EF5F01C098E086958695E1
:103AF0008695082F10E01C830B83642E712C5301D4
:103B0000A90EB11C4FEF50E00A2C02C05595479505
:103B10000A94E2F7872F90E09A838983E13011F4C9
:103B2000F42F01C0F0E08FEF90E0DC0101C0AA0F9C
:103B30007A95EAF7FA2BF987D501189702C095957F
:103B40008795AA95E2F7F82EA0E0B0E0062F10E0E6
:103B50001E830D832E2E312C11E0211A3108AE1553
:103B600008F08EC0509139058D819E818A0F9B1F70
:103B7000589F8001599F100D11246B817C81060F85
:103B8000171FE0912905F0912A05E00FF11F5081E0
:103B9000898585238083B9016F5F7F4FF601E20F2E
:103BA000F31F8491E0912905F0912A05E00FF11FA0
:103BB000882E912C062C02C0959487940A94E2F7E3
:103BC0009081892A80822101460E571E4801821A5F
:103BD000930A8401060F171F2091290530912A05A9
:103BE00090E06415750510F5F901E00FF11F5081A3
:103BF000098001C0880F0A94EAF78083F601E60F76
:103C0000F71F8491E0912905F0912A05E00FF11F3B
:103C1000282F30E0062C02C0359527950A94E2F74C
:103C20009081292B20836F5F7F4FD3CFE8E0AE16C2
:103C3000B10448F4F8013197E20FF31F54232081B7
:103C4000522B50830AC0F8E0AF16B10431F0F901ED
:103C5000E00FF11F20812F21208320912905309131
:103C60002A05F901E00FF11F098002C0880F991F92
:103C70000A94E2F79081892B808311969B016FCF84
:103C800029960FB6F894DEBF0FBECDBFDF91CF915E
:103C90001F910F91FF90EF90DF90CF90BF90AF906A
:103CA0009F908F907F906F905F904F903F902F905C
:103CB0000895EF920F93242F40912D0550912E05DA
:103CC000FA0132969491DA011196FD01E490FA011D
:103CD0000491FD01A491291B2A9F900111242D5FBD
:103CE0003F4F0E943C1D0F91EF900895CF93DF93BB
:103CF0001F92CDB7DEB78A3001F1C8F4882309F4EA
:103D000056C0883021F5E0912D05F0912E05E49103
:103D100080912B0590E08E1B910980932B0540E24A
:103D200060912C050F90DF91CF910C94591E8D302E
:103D300059F08E3009F43BC00AC010922B050F9049
:103D4000DF91CF910C94561C10922B0530C0482F58
:103D500080912B0520913905E0912D05F0912E05DC
:103D6000E491682F70E098E0299F900111242E1BA8
:103D70003109621773075CF010922B0549830E948A
:103D8000561C498160912C0580912B0502C06091E1
:103D90002C050E94591EE0912D05F0912E05E4910D
:103DA00080912B05F0E0E80FF11DE0932B050F90BB
:103DB000DF91CF910895CF93DF93EC018991882310
:103DC00019F00E94761EFACFDF91CF9108950F93DC
:103DD0001F93CF93DF93FB01DA0170913905E4174C
:103DE000F507C1F408E0709FD0011124AF015527F9
:103DF0004A175B070CF0A1C090913805891708F0AD
:103E00009CC0422F682F8E2FDF91CF911F910F9171
:103E10000C94EB0F4E175F0720F4AF015527FD01FF
:103E2000DA01AF0147705527CFEFD0E08E0102C015
:103E3000159507954A95E2F7A801902F33E0F6957E
:103E4000E7953A95E1F7789FB0011124E60FF71F47
:103E50008D010770112702C0D595C7950A95E2F725
:103E60003C2F309553E0B695A7955A95E1F76A0F28
:103E70007B1FE617F70719F4932F942330E02130C6
:103E8000E9F4AF014F5F5F4FA0912905B0912A057A
:103E9000EA0FFB1F8081982B90838FEFE09129051B
:103EA000F0912A05E40FF51F4617570720F4808389
:103EB0004F5F5F4FF3CF8081382B3EC021111EC072
:103EC000AF014F5F5F4FA0912905B0912A05EA0F1E
:103ED000FB1F9095808198239083E0912905F091B4
:103EE0002A05E40FF51F4617570720F410824F5F8D
:103EF0005F4FF3CF3095808138231EC02230E9F424
:103F0000AF014F5F5F4FA0912905B0912A05EA0FDD
:103F1000FB1F808198279083E0912905F0912A0565
:103F2000E40FF51F80814617570728F4809580839A
:103F30004F5F5F4FF1CF38273083DF91CF911F91D3
:103F40000F9108952F923F924F925F926F927F92BE
:103F50008F929F92AF92BF92CF92DF92EF92FF9299
:103F60000F931F93CF93DF9300D000D0CDB7DEB770
:103F7000962FE22F202FC82ED12C6091390570E0AA
:103F80008B01F3E0000F111FFA95E1F70C151D05E9
:103F90000CF41CC130913805391708F417C1A42F4F
:103FA000B0E00A171B070CF411C13E1708F40EC14C
:103FB00084138BC0F0E0E92EF12CEE16FF0609F514
:103FC000C016D1060CF002C1931708F0FFC0422FB3
:103FD000692F0F900F900F900F90DF91CF911F914D
:103FE0000F91FF90EF90DF90CF90BF90AF909F9098
:103FF0008F907F906F905F904F903F902F900C9498
:10400000EB0FEE15FF0528F03E2F9F2FF701E32E53
:10401000F92E982F977040E850E002C055954795CB
:104020009A95E2F7342FE69F8001E79F100DF69FE7
:10403000100D1124869586958695B801680F711D1F
:10404000CB012130A1F4EE16FF0608F4BFC0409169
:10405000290550912A05480F591FDA012C91232B6D
:104060002C9320913905820F911D3196ECCF2111AF
:1040700015C04095EE16FF0608F4A8C0609129050A
:1040800070912A05680F791FDB012C9124232C9352
:1040900020913905820F911D3196ECCF223009F025
:1040A00095C0EE16FF0608F491C040912905509185
:1040B0002A05480F591FDA012C9123272C932091B0
:1040C0003905820F911D3196ECCF9E131BC0AD01B7
:1040D000B601892F0F900F900F900F90DF91CF9125
:1040E0001F910F91FF90EF90DF90CF90BF90AF9016
:1040F0009F908F907F906F905F904F903F902F9008
:104100000C94E71EA92EB12C481738F4A6014A1BBF
:104110005B0B5C834B838FEF06C0BD016C197D097F
:104120007C836B8381E0EE2EF12CE91730F4D5010E
:10413000AE19BF097D013FEF03C0EA18FB0831E06B
:104140004B815C814E155F0544F44B819C81FC8260
:10415000EB82E42EF92E91E001C090E0EE0CFF1C02
:1041600037016B817C81661A770A8B01000F111F62
:10417000212C312C432E330F5508882E880F990897
:10418000AB81BC81A215B3050CF1422F6A2D8C2D99
:104190002A8399830E94EB0F2A81998177FC09C0B9
:1041A000913019F4C80CD91C02C0A40CB51C601ABB
:1041B000710A913019F4A40CB51C02C0C80CD91CAA
:1041C0006E0C7F1C7FEF271A370ADACF0F900F9003
:1041D0000F900F90DF91CF911F910F91FF90EF9073
:1041E000DF90CF90BF90AF909F908F907F906F9017
:1041F0005F904F903F902F9008958F929F92AF9233
:10420000BF92CF92DF92EF92FF920F931F93CF93C3
:10421000DF93F82EC62FD42F122F0F3F59F0E62E22
:10422000C22ED12CC60ED11C882E912C5401A40E66
:10423000B11C28C0DF0D01E02C2F4D2F6C2F8F2DCE
:104240000E94A21F1C0F212F4F2D6C2F8F2D0E941B
:10425000A21F212F4D2F6C2F8D2F0E94A21F212FC7
:104260004D2F612F8F2D0E94A21FDF91CF911F91A3
:104270000F91FF90EF90DF90CF90BF90AF909F9005
:104280008F9008958E2D90E08C159D059CF6202F23
:10429000A501B4018E2D0E94E71EE394F3CF2F9267
:1042A0003F924F925F926F927F928F929F92AF92C6
:1042B000BF92CF92DF92EF92FF920F931F93CF9313
:1042C000DF9300D000D000D0CDB7DEB7F82EE62EB9
:1042D000942E522E242F30E03E832D8381E090E0F7
:1042E0006C01C21AD30A1901319421943108220CAD
:1042F000331C3FEF531671F06F2D70E04D815E81DE
:10430000460F571F8D819E81681B790B252D8E2DA1
:104310000E94E71E692D6E0D8F2D0E94C90F6E2D14
:1043200069198F2D0E94C90F6E2D892D8F0D0E9446
:10433000C90F6E2D8F2D89190E94C90F1A8200E0B6
:1043400010E0AF2CB12CED81FE810E171F070CF091
:1043500085C0D7FC0AC0ED81FE813197FE83ED83D5
:10436000F2E02F0E311CC20CD31C0F5F1F4FC8018F
:10437000880F991F0196C80ED91E4D804E0C3E2DF8
:104380008D81381B39839E2D900F9B833E2D301BD2
:104390003C838FEF5816C1F1892D90E0ED81FE81AD
:1043A0008E179F0791F0252D38016A0C7B1CA30105
:1043B0004501801A910AB401842D0E94E71E252D23
:1043C000A301B40189810E94E71E3A81832F90E006
:1043D00080179107B9F08D819E810817190791F018
:1043E000252D4C018A0C9B1CA4013501681A790A01
:1043F000B3018B810E94E71E252DA401B3018C819E
:104400000E94E71E9D800A83642D7F2C700E872DED
:104410000E94C90F642D8F2C801A882D0E94C90F0D
:104420006981872D0E94C90F6981882D0E94C90F5B
:104430006B817D807F0C872D0E94C90F6B818F2C33
:104440009D81891A882D0E94C90F6C81872D0E9439
:10445000C90F6C81882D0E94C90F75CF26960FB6A3
:10446000F894DEBF0FBECDBFDF91CF911F910F91AA
:10447000FF90EF90DF90CF90BF90AF909F908F9084
:104480007F906F905F904F903F902F9008950E9483
:10449000DB1E8DE00E94761E8AE00C94761E2F9221
:1044A0003F924F925F926F927F928F929F92AF92C4
:1044B000BF92CF92DF92EF92FF920F931F93CF9311
:1044C000DF9300D000D0CDB7DEB79C838B836B0128
:1044D000DC0112968C91811103C08FEF9FEFF4C025
:1044E000EB81FC81818180FFF8CFAB81BC8152964A
:1044F0000D911D912D913C9155971A968D919D91FD
:104500000D90BC91A02DB901A801481B590B6A0B55
:104510007B0B423051056105710508F09DC0081BF9
:10452000190B78018B819C8106969A838983812C53
:1045300032E0932E2090DD053090DE05E114F10489
:1045400009F488C0AB81BC811A964D915D916D9143
:104550007C911D975A01B1E0BB22EB81FC818481E3
:104560009581DC0115963C9115972A013B0129E0C4
:1045700076946794579447942A95D1F722812230F4
:1045800069F456968D919D910D90BC91A02DBC0122
:10459000CD01640D751D861D971D47C0732E7420B7
:1045A000A114B10401F571101EC0452B462B472BF9
:1045B00059F4EB81FC8186899789A08DB18D868322
:1045C0009783A087B1870FC0AB81BC8116964D91B0
:1045D0005D916D917C91199729813A810E94CF1646
:1045E000882309F47ACFEB81FC812481358186818F
:1045F0009781A085B1850297A109B109F9010284CB
:1046000004C0880F991FAA1FBB1F0A94D2F74385C5
:10461000548565857685840F951FA61FB71FBC013D
:10462000CD01670D711D811D911DA114B104B9F457
:10463000E114F2E0FF0698F04090DF055090E005AD
:104640006090E1057090E205641575058605970593
:10465000E1F405C0C80138C001E010E062CF940168
:104660002A193B0937012E153F0508F4390140E0AE
:104670000E941516009709F430CFBC016A0D7B1D0E
:10468000A301C6010E94612C0CC09601AB01BC01C4
:10469000C1010E94470F882309F41FCF612C82E0DB
:1046A000782EC60CD71CEB81FC8182859385A4856E
:1046B000B585860D971DA11DB11D82879387A4879F
:1046C000B587E618F7083ACF0F900F900F900F902C
:1046D000DF91CF911F910F91FF90EF90DF90CF90DE
:1046E000BF90AF909F908F907F906F905F904F9012
:1046F0003F902F9008954F925F926F927F928F928A
:104700009F92AF92BF92FF920F931F93CF93DF932D
:10471000CDB7DEB7C857D1090FB6F894DEBF0FBECC
:10472000CDBFF82E80E2E3968FAFE3978AE090E169
:10473000E5969FAF8EAFE59782E0E6968FAFE6975E
:10474000E8961FAE1EAEE897E9961FAEE9976DE5B5
:1047500071E0CE018F5A9F4F0E946E1101E510E06B
:104760000C0F1D1F0C5F1F4F6FE571E0C8010E9409
:10477000651189E491E063969FAF8EAF63978BE5F7
:1047800091E067969FAF8EAF679781E590E08C0FC1
:104790009D1F06960E94AA176A961FAE6A97679693
:1047A000AEADBFAD679716972D913C91F801E20F22
:1047B000F31F86818460868310922406109220065F
:1047C00010922106109222061092230610920B06D8
:1047D00010920A064FEF5FEFBA014093060650931E
:1047E000070660930806709309061092020610925D
:1047F0000306109204061092050610921C061092F1
:104800001D0610921E0610921F0610921B06109293
:104810001A068091FC059091FD05A091FE05B091CE
:10482000FF058093160690931706A0931806B09381
:104830001906B095A095909581959F4FAF4FBF4FAA
:104840008093120690931306A0931406B093150656
:1048500040930E0650930F06609310067093110656
:104860006A968FAD6A97882309F4C6C082E0F81271
:1048700010C020E040E060E88CEA0E946F1064E124
:1048800070E080E090E00E9485150E94BE100E94BA
:104890008E1001E510E00C0F1D1F0C5F1F4F659679
:1048A0001FAE1EAE65971982A5964CAC5DAC6EAC82
:1048B0007FACA597A1968CAC9DACAEACBFACA197DC
:1048C000C8010E94801897FD45C065962EAD3FAD8A
:1048D00065978A30910539F42F5F3F4F65963FAF5A
:1048E0002EAF659737C0A9014F5F5F4F4035510527
:1048F000F0F0A5964CAE5DAE6EAE7FAEA597A196DC
:104900008CAE9DAEAEAEBFAEA1976396EEADFFADE1
:10491000639736970190F081E02D81E590E08C0F50
:104920009D1FE80FF91F86818460868313C06596FA
:104930005FAF4EAF6597E1E0F0E0EC0FFD1FE20FD7
:10494000F31F8083E1E0F0E0EC0FFD1FE40FF51FA3
:104950001082AACF65962EAD3FAD65972115310522
:1049600089F46396EEADFFAD639736970190F081C1
:10497000E02D81E590E08C0F9D1FE80FF91F8681E7
:10498000846086836396EEADFFAD639736970190A2
:10499000F081E02D81E590E08C0F9D1FE80FF91F5D
:1049A0008681857049F5EF2B39F1E9968FADE9974E
:1049B000857011F5223031050CF471CF89818A336D
:1049C000D9F4F11019C080910C0690910D069C014C
:1049D0002F5F3F4F30930D0620930C0668E270E086
:1049E0000E948B29892B41F48A81082E000C990B97
:1049F0000E94482C0097F1F781E0C858DF4F0FB6AE
:104A0000F894DEBF0FBECDBFDF91CF911F910F9104
:104A1000FF90BF90AF909F908F907F906F905F902E
:104A20004F900895CF93DF9300D000D000D0CDB742
:104A3000DEB7789484B5826084BD84B5816084BD1E
:104A400085B5826085BD85B5816085BD80916E002C
:104A5000816080936E00109281008091810082605D
:104A6000809381008091810081608093810080919A
:104A700080008160809380008091B1008460809389
:104A8000B1008091B00081608093B00080917A0085
:104A9000846080937A0080917A00826080937A00AB
:104AA00080917A00816080937A0080917A0080689A
:104AB00080937A001092C10076E0272E312C412C91
:104AC000512CEAEE6E2EEDE07E2E81E00E94F01475
:104AD00081E00E94F014892B09F486C280EA95E0F7
:104AE0000E94742C90932A0580932905009709F45D
:104AF00058C010922B0510922C0590933F0580937F
:104B00003E058FE08093390580E68093380510924A
:104B1000310510923205109233051092340581E070
:104B200080933B0580933C0529EB3CE030931903CF
:104B300020931803579A219A5F98299A239A92EC06
:104B40009093800099E1909381009BE290933505CA
:104B50009FEB90933A0593E090933D05E6E0F1E0FA
:104B6000F0933705E093360527EF33E03093870065
:104B700020938600EAE4F0E0F0938900E093880057
:104B800027E031E03093300520932F0526E03DE00B
:104B9000309317032093160380936F0078940E943C
:104BA000891C70922E0560922D05E6E8F0E01491C4
:104BB000E7E8F0E07491812F8770C12EC694C69407
:104BC000C6948111C394D12C872E912CC4010197D6
:104BD000C89E5001C99EB00CD89EB00C1124F2E0C2
:104BE000AF0EB11CFF24F394212F30E03D832C83C2
:104BF000F71600F580913905880F880F880F90E02F
:104C0000EC81FD818E1B9F0B97FD019695958795F5
:104C1000EF2C012F950146E850E060E07E830E9472
:104C20003C1DAC18BD0882E390E00E94A31CF394E5
:104C30007E81DECFF12CC12ED12C2F2D30E0809142
:104C4000380590E08819990997FD01969595879503
:104C500028173907DCF480913905880F880F880FF1
:104C600090E08C199D0997FD019695958795E12C0B
:104C700000E020E030E046E850E06F2D0E943C1D4F
:104C800082E390E00E94A31CF394D7CF88EB9BE0D3
:104C90000E94A31C0E94891C83E691E00E94472287
:104CA00084EC99E00E94A31C82E991E00E944722D3
:104CB00084EC99E00E94A31C8EEC91E00E944722B4
:104CC0008CED95E00E94A31CE12C00E020E030E098
:104CD00048E458E060E080E00E943C1D80E197E2FB
:104CE0000E94A31C0E94891C8CED91E00E94472227
:104CF00080ED97E00E94A31C0E94891C10922B0556
:104D000010922C0588EF91E00E94DB1E8DE00E943E
:104D1000761E8AE00E94761E2BE036E030932E0548
:104D200020932D0588E092E00E94472270922E0584
:104D300060922D0586E192E00E94472288E092E091
:104D400090932E0580932D0584E292E00E944722E5
:104D500070922E0560922D0580ED97E00E94A31CB5
:104D60000E94891C89E080932B058CE280932C059E
:104D700082E392E00E94DB1E80ED97E00E94A31C7C
:104D80000E94891C609138054BEA649F412D1124D3
:104D90004695669580913905880F880F880F2FEF0B
:104DA00086950E944F2184EF91E00E94A31C6091A0
:104DB0003805669580913905880F880F880F22E0A5
:104DC000462F86950E944F2180ED97E00E94A31CFC
:104DD0000E94891C0FEF28E340E564E184E10E9412
:104DE000FD2084EF91E00E94A31C02E02CE444E645
:104DF0006AE08AE00E94FD2084EF91E00E94A31CFB
:104E00002CE44CE364E18CE30E94A21F20E344E61F
:104E100060E384E10E94A21F84EF91E00E94A31C42
:104E200026E54EE66AE08AE00E94A21F2AE04EE6EE
:104E300066E58AE00E94A21F80ED97E00E94A31C15
:104E40000E94891C80E180932B0588E280932C05C9
:104E500084E492E00E94DB1E8CE180932B0580E3CA
:104E600080932C0580E592E00E94DB1E80ED97E0A8
:104E70000E94A31C80E480937C0080917A0080646F
:104E800080937A0080917A0086FDFCCF6091780053
:104E90008091790070E0782B072E000C880B990B1D
:104EA000611571058105910511F00E94F42D0E9494
:104EB000EF2D22E330E040E050E00E94062EDC01BE
:104EC000CB010A96A11DB11D8C010E94EF2DA201FC
:104ED00091010E94062E623071058105910509F449
:104EE00041C074F46115710581059105C9F0613007
:104EF00071058105910509F077C0C12CD12C22C024
:104F0000643071058105910509F44EC0E4F1653006
:104F100071058105910509F067C0C12CD12C55C0E0
:104F2000C12CD12CC016D1060CF05EC060E577E72D
:104F300086E59DE30E94AB120E943E139FEFC91AC3
:104F4000D90AF0CFC016D1060CF04EC06CEE72E656
:104F500087EC90E40E94AB120E943E13EFEFCE1A52
:104F6000DE0AF0CFC12CD12CC016D106ECF560E5DD
:104F700077E786E59DE30E9475110E943E13FFEFDF
:104F8000CF1ADF0AF1CFC12CD12CC016D10664F59F
:104F90006CEE72E687EC90E40E9475110E943E135D
:104FA0002FEFC21AD20AF1CFC12CD12CC016D106D4
:104FB000DCF460E577E786E59DE30E9411120E942C
:104FC0003E133FEFC31AD30AF1CFC016D10664F4E3
:104FD0006CEE72E687EC90E40E9411120E943E1380
:104FE0008FEFC81AD80AF1CF81E00E94F014892B04
:104FF00009F4D3C082E00E94F014019739F460E113
:1050000071E084EE95E00E946A2CF4CF0E941C109F
:10501000882309F4C2C08FEF9FEF90930101809322
:1050200000011092E305FE0131966F0110E020E0CF
:10503000412F60E080E30E946F10F60181936F01C1
:105040001F5F1330A1F70DEE10E1C12CD12C41E10F
:1050500050E0B80181EF95E00E94FD2D43E050E063
:1050600061EF75E0CE0101960E94542C892B59F412
:10507000D0920101C092000120E040E060E08DE4A8
:105080000E946F1009C0FFEFCF1ADF0A0F5E1F4F9B
:105090002FE0C216D104D9F620E040E060E080E5C0
:1050A0000E946F1080931A0320E040E068E088E5DA
:1050B0000E946F1080931B0320E040E068E080E5D1
:1050C0000E946F1080931C0320E040E060E088E5C0
:1050D0000E946F1080931D0320E040E060E088E3B1
:1050E0000E946F1080931E03809100019091010136
:1050F000019609F452C010920B0610920A0680E045
:105100000E947B23811123C0409102065091030627
:1051100060910406709105068091F6059091F7055F
:10512000A091F805B091F90584179507A607B70770
:1051300070F080E00E94D110811109C00E941C1003
:10514000882329F082E00E947B23882371F160E0AC
:1051500085E00E94191560E084E00E94191560E066
:1051600087E00E94191560E086E00E94191560E052
:1051700085E00E94491560E084E00E94491560E0E6
:1051800087E00E94491560E086E00E94491564EFBF
:1051900071E080E090E00E94851580E090E0892B2E
:1051A00009F493CC0E94000090CC81E00E947B2304
:1051B0008111CDCF80910A0690910B06892B39F68B
:1051C00081E00E94D110C3CF0F931F93E0EAF5E076
:1051D0001382128281E291E091838083E4EAF5E018
:1051E00089E181831482108E178E11A2E0E4F5E02C
:1051F00080E090E0A8E4B2EC80839183A283B38343
:1052000040E050E068E472E444835583668377832A
:1052100000E010E028EC32E4008711872287338712
:105220004487558766877787408B518B628B738B5A
:10523000048B158B268B378B808F918FA28FB38F2A
:10524000848F958FA68FB78F00A311A322A333A3BA
:1052500044A355A366A377A380A791A7A2A7B3A74A
:1052600004A715A726A737A780AB91ABA2ABB3AB1A
:1052700044AB55AB66AB77AB00E010E028E433E419
:1052800000AF11AF22AF33AF44AF55AF66AF77AFCA
:105290004093800550938105609382057093830548
:1052A0000093840510938505209386053093870528
:1052B0008093880590938905A0938A05B0938B0508
:1052C00080938C0590938D05A0938E05B0938F05E8
:1052D00000939005109391052093920530939305C8
:1052E00040939405509395056093960570939705A8
:1052F0008093980590939905A0939A05B0939B0588
:1053000000939C0510939D0520939E0530939F0567
:105310001F910F910895AA1BBB1B51E107C0AA1F43
:10532000BB1FA617B70710F0A61BB70B881F991F46
:105330005A95A9F780959095BC01CD010895EE0F7F
:10534000FF1F0590F491E02D09945058BB27AA2720
:105350000E94BD290C94372B0E94FE2A38F00E942F
:10536000052B20F039F49F3F19F426F40C94FB2A06
:105370000EF4E095E7FB0C94F52AE92F0E945C2BD4
:1053800058F3BA17620773078407950720F079F47A
:10539000A6F50C947E2B0EF4E0950B2EBA2FA02DC3
:1053A0000B01B90190010C01CA01A0011124FF27D2
:1053B000591B99F0593F50F4503E68F11A16F040CD
:1053C000A22F232F342F4427585FF3CF46953795CC
:1053D0002795A795F0405395C9F77EF41F16BA0B91
:1053E000620B730B840BBAF09150A1F0FF0FBB1F3F
:1053F000661F771F881FC2F70EC0BA0F621F731F88
:10540000841F48F4879577956795B795F7959E3FE4
:1054100008F0B0CF9395880F08F09927EE0F979575
:10542000879508950E940E2BE3950C94482B0E94BB
:105430002B2A0C94372B0E94052B58F00E94FE2A31
:1054400040F029F45F3F29F00C94F52A51110C9497
:105450007F2B0C94FB2A0E945C2B68F39923B1F3F9
:10546000552391F3951B550BBB27AA27621773078A
:10547000840738F09F5F5F4F220F331F441FAA1F1E
:10548000A9F335D00E2E3AF0E0E832D091505040DA
:10549000E695001CCAF72BD0FE2F29D0660F771F88
:1054A000881FBB1F261737074807AB07B0E809F06E
:1054B000BB0B802DBF01FF2793585F4F3AF09E3FF3
:1054C000510578F00C94F52A0C947F2B5F3FE4F3A0
:1054D000983ED4F3869577956795B795F7959F5F36
:1054E000C9F7880F911D9695879597F90895E1E082
:1054F000660F771F881FBB1F621773078407BA07E1
:1055000020F0621B730B840BBA0BEE1F88F7E0953B
:1055100008950E94642B88F09F5798F0B92F99271F
:10552000B751B0F0E1F0660F771F881F991F1AF08E
:10553000BA95C9F714C0B13091F00E947E2BB1E04A
:1055400008950C947E2B672F782F8827B85F39F049
:10555000B93FCCF3869577956795B395D9F73EF427
:1055600090958095709561957F4F8F4F9F4F0895CF
:10557000E89409C097FB3EF49095809570956195ED
:105580007F4F8F4F9F4F9923A9F0F92F96E9BB27A3
:105590009395F695879577956795B795F111F8CF1F
:1055A000FAF4BB0F11F460FF1BC06F5F7F4F8F4F8A
:1055B0009F4F16C0882311F096E911C0772321F080
:1055C0009EE8872F762F05C0662371F096E8862F18
:1055D00070E060E02AF09A95660F771F881FDAF76F
:1055E000880F9695879597F9089597F99F6780E8B2
:1055F00070E060E008959FEF80EC089500240A9425
:105600001616170618060906089500240A9412169D
:1056100013061406050608950C94FB2A0E94642BB9
:10562000D8F3E894E0E0BB279F57F0F02AED3FE085
:1056300049EC06C0EE0FBB0F661F771F881F28F0CE
:10564000B23A62077307840728F0B25A620B730BF1
:10565000840BE3959A9572F7803830F49A95BB0FD6
:10566000661F771F881FD2F790480C94FC2B092ED9
:105670000394000C11F4882352F0BB0F40F4BF2BAD
:1056800011F460FF04C06F5F7F4F8F4F9F4F0895ED
:10569000EF93E0FF07C0A2EA2AED3FE049EC5FEBA1
:1056A0000E94BD290E94372B0F90039401FC905853
:1056B000E8E6F0E00C94082C57FD9058440F551F75
:1056C00059F05F3F71F04795880F97FB991F61F084
:1056D0009F3F79F087950895121613061406551FFB
:1056E000F2CF4695F1DF08C0161617061806991F67
:1056F000F1CF86957105610508940895E894BB275C
:1057000066277727CB0197F908950E94982B0C9470
:10571000372B0E94FE2A38F00E94052B20F095239B
:1057200011F00C94F52A0C94FB2A11240C947F2B75
:105730000E945C2B70F3959FC1F3950F50E0551FAD
:10574000629FF001729FBB27F00DB11D639FAA27D6
:10575000F00DB11DAA1F649F6627B00DA11D661F25
:10576000829F2227B00DA11D621F739FB00DA11D46
:10577000621F839FA00D611D221F749F3327A00D00
:10578000611D231F849F600D211D822F762F6A2F9C
:1057900011249F5750409AF0F1F088234AF0EE0F01
:1057A000FF1FBB1F661F771F881F91505040A9F72E
:1057B0009E3F510580F00C94F52A0C947F2B5F3F9F
:1057C000E4F3983ED4F3869577956795B795F7956A
:1057D000E7959F5FC1F7FE2B880F911D96958795E2
:1057E00097F908959F930E940E2B0F9007FCEE5F90
:1057F0000C94482B9F3F31F0915020F4879577957A
:105800006795B795880F911D9695879597F9089597
:105810009F938F937F936F93FF93EF939B01AC01C3
:105820000E94852BEF91FF910E941C2C2F913F919C
:105830004F915F910C94852BDF93CF931F930F9320
:10584000FF92EF92DF927B018C01689406C0DA2E02
:10585000EF010E94982BFE01E894A59125913591C6
:1058600045915591A6F3EF010E94BD29FE019701D4
:10587000A801DA9469F7DF90EF90FF900F911F91E4
:10588000CF91DF91089581E090E0F8940C94692E17
:1058900091110C94712C80538A5028F0865C8062A0
:1058A00081568650B0F70895FB01DC0104C08D914C
:1058B0000190801921F441505040C8F7881B990B82
:1058C0000895FB01DC0102C001900D92415050404F
:1058D000D8F70895FB01DC0101900D920020E1F75B
:1058E0000895992788270895CF93DF9382309105F3
:1058F00010F482E090E0E0912706F091280620E085
:1059000030E0C0E0D0E0309711F14081518148177C
:105910005907C0F04817590761F482819381209795
:1059200019F09B838A832BC09093280680932706C7
:1059300026C02115310519F04217530718F49A01B2
:10594000BE01DF01EF010280F381E02DDCCF2115E4
:10595000310509F1281B390B2430310590F41296DA
:105960008D919C9113976115710521F0FB01938333
:10597000828304C09093280680932706FD01329607
:1059800044C0FD01E20FF31F81939193225031092E
:105990002D933C933AC02091250630912606232B67
:1059A00041F42091040130910501309326062093A3
:1059B000250620910201309103012115310541F4A2
:1059C0002DB73EB74091060150910701241B350BBE
:1059D000E0912506F0912606E217F307A0F42E1BAE
:1059E0003F0B2817390778F0AC014E5F5F4F241743
:1059F000350748F04E0F5F1F50932606409325064B
:105A00008193919302C0E0E0F0E0CF01DF91CF916C
:105A100008950F931F93CF93DF93009709F48CC0E1
:105A2000FC013297138212820091270610912806FA
:105A30000115110581F420813181820F931F20917E
:105A40002506309126062817390779F5F0932606A2
:105A5000E093250671C0D80140E050E0AE17BF07C3
:105A600050F412962D913C911397AD0121153105FB
:105A700009F1D901F3CF9D01DA01338322836081DB
:105A80007181860F971F8217930769F4EC012881B3
:105A90003981260F371F2E5F3F4F318320838A8144
:105AA0009B8193838283452B29F4F0932806E0930E
:105AB000270642C01396FC93EE931297ED0149918D
:105AC00059919E01240F351FE217F30771F480816D
:105AD0009181840F951F029611969C938E938281DB
